:020000021000EC
:10F000000C944FF80C946EF80C946EF80C946EF807
:10F010000C946EF80C946EF80C946EF80C946EF8D8
:10F020000C946EF80C946EF80C946EF80C946EF8C8
:10F030000C946EF80C946EF80C946EF80C946EF8B8
:10F040000C946EF80C946EF80C946EF80C946EF8A8
:10F050000C946EF80C946EF80C946EF80C946EF898
:10F060000C946EF80C946EF80C946EF80C946EF888
:10F070000C946EF80C946EF80C946EF80C946EF878
:10F080000C946EF80C946EF80C946EF858426A0169
:10F0900065FD6CFD6EFDB0FD00008DFDC3FD11240E
:10F0A0001FBECFEFD0E4DEBFCDBF11E0A0E0B1E0E6
:10F0B000ECE1FCEF01E00BBF02C007900D92A23023
:10F0C000B107D9F712E0A2E0B1E001C01D92A23071
:10F0D000B107E1F70E94C3FA0C940CFE0C9400F8FF
:10F0E00090910001923050F48091C00087FFFACFD8
:10F0F00081E0809300018091C6000895FFCF982F92
:10F1000080910001823058F49093C6008091C00035
:10F1100086FFFCCF8091C00080648093C00008957A
:10F120000E9470F8382F0E9470F8282FC9010895A6
:10F13000AF92BF92CF92DF92EF92FF920F931F9305
:10F14000CF93DF935B016C0179018A01C0E0D0E0CD
:10F1500020E031E036C081E02030380781F482E0E1
:10F1600091E0B601A5010E94BAFC80E091E0A0E028
:10F17000B0E0A80EB91ECA1EDB1E20E030E0F90187
:10F18000EE5FFE4F8081C8278C2F82958C27082E3A
:10F19000869586958025082E8695802587700C2E6D
:10F1A000CD2F869507948795D02DC82706948795EF
:10F1B000D025C8272F5F3F4F0894E108F1080109C7
:10F1C0001109E114F1040105110509F0C4CFCE01C4
:10F1D000DF91CF911F910F91FF90EF90DF90CF9033
:10F1E000BF90AF900895DF92EF92FF920F931F931D
:10F1F00082E091E040E05FEE61E070E00E94BAFCE6
:10F200008091FC01883509F0F2C08091FD018234C3
:10F2100009F0EDC08091FE01893409F0E8C08091C9
:10F22000FF01863409F0E3C0F09000020091010272
:10F2300060E078EF80E090E02AEF37EF40E050E0C8
:10F240000E9498F82FEF8227382F32953827032E07
:10F25000369536953025032E369530253770082E95
:10F26000892F369507943795902D832706943795E7
:10F27000902583278227382F32953827032E3695FD
:10F2800036953025032E369530253770082E892F78
:10F29000369507943795902D8327069437959025BA
:10F2A00083278227382F32953827032E36953695B7
:10F2B0003025032E369530253770082E892F369548
:10F2C00007943795902D83270694379590258327AB
:10F2D0008227382F32953827032E369536953025DC
:10F2E000032E369530253770082E892F36950794D2
:10F2F0003795902D8327069437959025832782276D
:10F30000382F32953827032E369536953025032E23
:10F31000369530253770082E892F36950794379506
:10F32000902D832706943795902583278227282FB1
:10F3300022952827022E269526952025022E2695F1
:10F3400020252770082E892F269507942795902D24
:10F35000822706942795902582273F2D20E010E0F4
:10F36000202B312B2817390709F03FC0EE24FF244A
:10F370008701DD24DA9485B1805885B9B801A701E9
:10F38000405058406F4F7F4F82E091E00E94BAFC9E
:10F3900080E0E81687EFF80680E0080780E01807AD
:10F3A00060F0D092FC01D092FD01D092FE01D0928B
:10F3B000FF01D0920002D0920102C801B70142E0E1
:10F3C00051E021E00E94DDFC80E091E0A0E0B0E0AF
:10F3D000E80EF91E0A1F1B1F90E0E91698EFF906C8
:10F3E00090E0090790E0190731F60E948DFD1F910A
:10F3F0000F91FF90EF90DF9008950F931F93CF939D
:10F40000DF938C01EA01653499F46881798182E0A7
:10F4100091E0A8010E94CAFD980140E050E0888177
:10F420009981AA81BB81820F931FA41FB51F34C08D
:10F43000663409F042C088819981AA81BB81880F16
:10F44000991FAA1FBB1F88839983AA83BB8322E0CD
:10F4500031E0A801420F531F88819981AA81BB81A5
:10F46000ABBFFC018791F901808307B600FCFDCF9B
:10F4700088819981AA81BB810196A11DB11D8883D4
:10F480009983AA83BB832F5F3F4F2417350721F74A
:10F49000B695A7959795879588839983AA83BB830B
:10F4A000C0E0D0E007C0FE01EE5FFE4F80810E9409
:10F4B0007FF82196C017D107B4F3DF91CF911F9148
:10F4C0000F910895DF92EF92FF920F931F93CF93C6
:10F4D000DF938C01D62E7A01C0E0D0E0C017D107AF
:10F4E00010F08FEF02C00E9470F8FE01EE5FFE4F39
:10F4F0008083219681E0C030D80781F7E5E4DE16ED
:10F50000C9F4F7016081718182E091E0A8010E9455
:10F51000F4FD980140E050E0F70180819181A281E3
:10F52000B381820F931FA41FB51F80839183A28391
:10F53000B38320C0F6E4DF1611F08FE31CC0F7019F
:10F54000608171818281938116950795980140E0D1
:10F5500050E0260F371F481F591F208331834283F5
:10F560005383660F771F881F991F42E051E021E007
:10F570000E94DDFC8DE0DF91CF911F910F91FF90F4
:10F58000EF90DF9008957F928F929F92AF92BF92FB
:10F59000CF92DF92EF92FF920F931F93DF93CF935F
:10F5A00000D000D0CDB7DEB719821A821B821C8230
:10F5B00010920001279A2F9A0E944AFD589A84B708
:10F5C000877F84BF88E10FB6F89480936000109223
:10F5D00060000FBE6091000120EE33E944E050E08E
:10F5E00096E0211531054105510529F021503040A3
:10F5F0004040504008C085B1805885B9915020EEF8
:10F6000033E944E050E08091C00087FD02C080E013
:10F6100002C081E061E0A895882361F06093000159
:10F6200081E0CC24DD24772473944E010894811C5E
:10F63000911C61C19923A9F660930001F2CF85B1B5
:10F64000805885B90E9470F8982F813611F489E5A9
:10F650004CC1813429F40E9490F8A0E0B0E008C0C9
:10F66000883461F40E9470F8A82F0E9490F8BB279C
:10F6700089839A83AB83BC838DE037C1853629F4B7
:10F680000E949BFC0E943AFDF7CF823629F489E55F
:10F690000E947FF881E0ACC0823489F40E9490F827
:10F6A000182F092F282F392FC9016C010E9470F8DB
:10F6B000682F812F902FA4010E9462FA16C187360D
:10F6C00089F40E9490F8182F092F282F392FC9018B
:10F6D0006C010E9470F8682F812F902FA4010E9466
:10F6E000FDF905C1823589F4E980FA800B811C811E
:10F6F000EE0CFF1C001F111F0BBFF701E790F690E7
:10F700008F2D0E947FF88E2D51C0833629F40E94E0
:10F7100070F8C82EDD24B0CF8334E1F40E9470F875
:10F72000B82EAA24CA28DB2889819A81AB81BC81A2
:10F730009C01AD01220F331F441F551F0601F90123
:10F7400040935B0070925700E89511240196A11D2B
:10F75000B11D8ECF8D36C9F429813A814B815C81F0
:10F76000203088EF380780E0480780E0580708F02D
:10F77000BBC0220F331F441F551F85E0F901409382
:10F780005B0080935700E89577CF843449F4098172
:10F790001A810E9470F8682FC8010E94FEFD08C0FF
:10F7A000843691F489819A810E94DAFD0E947FF863
:10F7B00089819A81AB81BC810196A11DB11D89838C
:10F7C0009A83AB83BC8393C0803509F455CF8C34C6
:10F7D00009F452CF853429F48DE00E947FF880E04F
:10F7E00087C0803711F483E580C0843729F48BE724
:10F7F0000E947FF880E079C08857823010F09435FD
:10F8000019F40E9470F838CF9335A1F488E50E946E
:10F810007FF882E40E947FF88FE60E947FF88FE6EF
:10F820000E947FF884E70E947FF88BE20E947FF8B5
:10F830008BE25BC0963529F481E30E947FF887E371
:10F8400054C0933741F485E00E947FF887E90E9415
:10F850007FF88EE14AC0983609F044C00E9470F8E3
:10F86000863481F1873428F4813441F0823431F5D3
:10F870000EC08136A9F0843709F517C060E070E04A
:10F8800080E090E020E030EF41E050E023C060E015
:10F8900070EF81E090E020E030E140E050E01AC0FD
:10F8A00060E070E080E090E004C060E078EF80E02D
:10F8B00090E020E038EF40E050E00CC08FE30E9481
:10F8C0007FF8BDCE60E070E080E090E020E030E0C6
:10F8D00042E050E00E9498F8182F892F0E947FF88C
:10F8E000812F03C09B3119F08FE30E947FF881E0E4
:10F8F00007B600FCFDCF882309F0A1CE0E94F3F8E3
:10F900000E9459FD589827982F980C94000080E089
:10F9100090E00F900F900F900F90CF91DF911F917B
:10F920000F91FF90EF90DF90CF90BF90AF909F909E
:10F930008F907F90089580E090E0A0E0B0E023E019
:10F94000FC01A0935B0020935700E89507B600FCEC
:10F95000FDCF80509F4FAF4FBF4F803030EF9307A8
:10F9600031E0A30730E0B30759F781E180935700F6
:10F97000E8950895EF92FF920F931F93DC0120E02A
:10F9800030E07A018B010894E11CF11C011D111D6E
:10F990006BBFFA018791FD01E20FF31F80832F5F98
:10F9A0003F4F81E02030380719F0B801A701E9CFB7
:10F9B0001F910F91FF90EF900895BF92CF92DF9229
:10F9C000EF92FF920F931F93CF93DF937B018C01F4
:10F9D0006A01F999FECF222351F083E0F7010093E9
:10F9E0005B0080935700E89507B600FCFDCF40E030
:10F9F00050E060E070E0BB24B394F6018081D181D7
:10FA0000C0E09E01280F311D82E090E0C80ED91E93
:10FA1000DB01CA018E0D9F1DA01FB11F0901FC0152
:10FA2000A0935B00B0925700E89511244E5F5F4FA2
:10FA30006F4F7F4F403091E0590790E0690790E0A9
:10FA40007907D9F685E0F70100935B0080935700B2
:10FA5000E89507B600FCFDCF81E180935700E8955B
:10FA6000DF91CF911F910F91FF90EF90DF90CF909A
:10FA7000BF900895CF93DF93C0E0D0E0CE016FEF49
:10FA80000E94E2FD21968FE0CF3FD807B9F7DF91C2
:10FA9000CF9108958CE090E09093C5008093C400CE
:10FAA0001092C00088E18093C10086E08093C2007C
:10FAB00008951092C0001092C10086E08093C200A9
:10FAC0001092C5001092C4000895FC0187E091E0F7
:10FAD0009183808380E0089582E008959B01AC01CA
:10FAE0009FB7213080EF380781E0480780E0580752
:10FAF00010F083E00895F89483E0F90140935B00EF
:10FB000080935700E89507B600FCFDCF81E1809314
:10FB10005700E8959FBF80E008952FB7F89480E0E4
:10FB200098EFA0E0B0E033E0FC01A0935B003093DD
:10FB30005700E89507B600FCFDCF80509F4FAF4FB0
:10FB4000BF4F803040EF940741E0A40740E0B40786
:10FB500059F781E180935700E8952FBF80E0089521
:10FB60001F931FB7613030EF730731E0830730E038
:10FB7000930710F083E005C0F8940E94DDFC1FBFDE
:10FB800080E01F910895605078408F4F9F4F0E94F2
:10FB9000B0FD0895DC01CB01FC01F999FECF06C050
:10FBA000F2BDE1BDF89A319600B40D92415050403B
:10FBB000B8F70895F999FECF92BD81BDF89A9927BB
:10FBC00080B50895262FF999FECF92BD81BDF89A90
:10FBD000019700B4021639F01FBA20BD0FB6F89491
:10FBE000FA9AF99A0FBE0895DC01CB0103C02D915A
:10FBF0000E94FFFD41505040D0F70895262FF999FB
:10FC0000FECF1FBA92BD81BD20BD0FB6F894FA9AFF
:0CFC1000F99A0FBE01960895F894FFCFFA
:02FC1C000100E5
:040000031000F000F9
:00000001FF
