:020000021000EC
:10F000000C944FF80C946EF80C946EF80C946EF807
:10F010000C946EF80C946EF80C946EF80C946EF8D8
:10F020000C946EF80C946EF80C946EF80C946EF8C8
:10F030000C946EF80C946EF80C946EF80C946EF8B8
:10F040000C946EF80C946EF80C946EF80C946EF8A8
:10F050000C946EF80C946EF80C946EF80C946EF898
:10F060000C946EF80C946EF80C946EF80C946EF888
:10F070000C946EF80C946EF80C946EF80C946EF878
:10F080000C946EF80C946EF80C946EF858426A0169
:10F09000D3FCDAFCDCFC19FD0000F8FC2BFD11248C
:10F0A0001FBECFEFD0E4DEBFCDBF11E0A0E0B1E0E6
:10F0B000E8EEFAEF01E00BBF02C007900D92A2301C
:10F0C000B107D9F722E0A2E0B1E001C01D92A23061
:10F0D000B207E1F70E944FFA0C9472FD0C9400F80D
:10F0E0008627682F62956827062E669566956025A7
:10F0F000062E669560256770082E892F6695079401
:10F100006795902D86270694679590258627089504
:10F11000909100019230F0F78091C00087FFFACF04
:10F1200081E0809300018091C600089590910001D4
:10F13000923058F48093C6008091C00086FFFCCFC7
:10F140008091C00080648093C00008950E9488F878
:10F150008F930E9488F89F91882F0895AF92BF9255
:10F16000CF92DF92EF92FF920F931F93CF93DF9393
:10F170001F92CDB7DEB77C015A01A89542E0C42E9C
:10F1800041E0D42E00E010E00E151F0528F469833D
:10F190000E9488F8698101C08FEFF60181936F01A9
:10F1A0000F5F1F4F0115F1E01F0771F76534B1F4D0
:10F1B000F50160817181A70182E091E00E945AFD12
:10F1C000F50100811181228133810E0D1F1D211D4A
:10F1D000311D00831183228333831EC06634F1F412
:10F1E000F50180819181A281B381F694E794AC010D
:10F1F000BD014E0D5F1D611D711D408351836283F2
:10F200007383BC01CD01660F771F881F991F21E012
:10F2100042E051E00E9449FC8DE001C08FE30F9075
:10F22000DF91CF911F910F91FF90EF90DF90CF90E2
:10F23000BF90AF900895EF92FF920F931F93CF93DB
:10F24000DF937C01EA016534B1F468817981AC0116
:10F2500082E091E00E9430FD88819981AA81BB8182
:10F260008E0D9F1DA11DB11D88839983AA83BB8329
:10F27000C2E0D1E039C0663409F040C0888199818C
:10F28000AA81BB81880F991FAA1FBB1F88839983FE
:10F29000AA83BB8342E051E0B7016E5F7E4F888155
:10F2A0009981AA81BB81ABBFFC018791FA0181934F
:10F2B000AF0107B600FCFDCF088119812A813B818F
:10F2C0000F5F1F4F2F4F3F4F088319832A833B83C4
:10F2D0004617570721F73695279517950795088301
:10F2E00019832A833B83C4CFCE01825091408E156F
:10F2F0009F0524F489910E9496F8F6CFDF91CF9173
:10F300001F910F91FF90EF9008958F929F92AF926F
:10F31000BF92CF92DF92EF92FF920F931F93CF9302
:10F32000DF936B017C0149015A0100E011E0C0E06C
:10F33000D0E081149104A104B10401F1011581E030
:10F34000180761F4B701A60182E091E00E942EFC4B
:10F350008FEFD81AE80AF80A00E010E0F801EE5F33
:10F36000FE4F6081CE010E9470F8EC010F5F1F4FCD
:10F3700081E0881A9108A108B108DBCFCE01DF91A6
:10F38000CF911F910F91FF90EF90DF90CF90BF90A2
:10F39000AF909F908F900895CF92DF92EF92FF925F
:10F3A000CF93DF9340E05FEE61E070E082E091E0B8
:10F3B0000E942EFC8091FC01883509F069C0809183
:10F3C000FD01823409F064C08091FE01893409F0A6
:10F3D0005FC08091FF01863409F05AC0E0900002BE
:10F3E000F12CFE2CEE2480910102E82A2AEF37EF5F
:10F3F00040E050E060E078EF80E090E00E9485F926
:10F40000C6E0D0E06FEF0E9470F821972097D1F707
:10F41000E816F90641F0DF91CF91FF90EF90DF9071
:10F42000CF900C94F8FCC12CD12C7601CFEF85B194
:10F43000805885B9B701A60158506F4F7F4F82E0C1
:10F4400091E00E942EFCC11487EFD806E104F1047C
:10F4500091F021E042E051E0C701B6010E9449FC71
:10F460008FEFD81AE80AF80AC11488EFD806E10429
:10F47000F104E9F6D0CFC093FC01C093FD01C09325
:10F48000FE01C093FF01C0930002C0930102E1CFCF
:10F49000DF91CF91FF90EF90DF90CF900895CF92C2
:10F4A000DF92FF920F931F93CF93DF9300D000D092
:10F4B000CDB7DEB719821A821B821C82109200011E
:10F4C000279A2F9A0E94B7FC589A84B7877F84BFE7
:10F4D00088E10FB6F89480936000109260000FBE30
:10F4E00036E080EE93E9A4E0B0E041E00097A105AA
:10F4F000B10521F00197A109B10908C085B1805873
:10F5000085B9315080EE93E9A4E0B0E02091C000CD
:10F5100027FF04C04093000121E001C020E0A8952E
:10F52000211103C03111E2CF01C021E039E288E1AD
:10F5300090E00FB6F894A895809360000FBE3093CA
:10F54000600000E010E0FF24F394222309F44BC193
:10F5500085B1805885B90E9488F8A895813611F444
:10F5600089E53AC1813429F40E94A6F8A0E0B0E010
:10F5700008C0883461F40E9488F8A82F0E94A6F879
:10F58000BB2789839A83AB83BC838DE025C18536F5
:10F5900029F40E9412FC0E949FFCF7CF823629F4C6
:10F5A00089E50E9496F881E0A2C0823469F40E9445
:10F5B000A6F88C010E9488F8AE014F5F5F4F682F5C
:10F5C000C8010E94AEF808C1873669F40E94A6F807
:10F5D0008C010E9488F8AE014F5F5F4F682FC80111
:10F5E0000E941BF9FBC0823589F489819A81AB8125
:10F5F000BC81880F991FAA1FBB1FABBFFC01C7901E
:10F60000D6908D2D0E9496F88C2D4FC0833629F40C
:10F610000E9488F8082F10E0B8CF8334B1F40E941C
:10F6200088F8182B89819A81AB81BC81AC01BD011E
:10F63000440F551F661F771F0801FA0160935B0096
:10F64000F0925700E895112426C08D36B9F48981CF
:10F650009A81AB81BC81811528EF9207A105B10584
:10F6600008F0B9C0880F991FAA1FBB1F25E0FC0135
:10F67000A0935B0020935700E89587CF843479F4FA
:10F680000E9488F8682F89819A810E9464FD89818F
:10F690009A81AB81BC810196A11DB11D72CF8436C8
:10F6A00091F489819A810E9440FD0E9496F8898197
:10F6B0009A81AB81BC810196A11DB11D89839A837A
:10F6C000AB83BC838BC0803509F45FCF8C3409F4E5
:10F6D0005CCF853429F48DE00E9496F820E07FC04D
:10F6E000803711F483E578C0843729F48BE70E94D2
:10F6F00096F880E071C098E8980F923010F0843549
:10F7000019F40E9488F841CF8335A1F488E50E945E
:10F7100096F882E40E9496F88FE60E9496F88FE6AB
:10F720000E9496F884E70E9496F88BE20E9496F871
:10F730008BE252C0863529F481E30E9496F887E374
:10F740004BC0833741F485E00E9496F887E90E9418
:10F7500096F88EE141C08836E1F50E9488F886343B
:10F7600021F168F4813431F18234D9F420E030E1C0
:10F7700040E050E060E070EF81E090E022C0813630
:10F7800059F0843771F420E038EF40E050E060E059
:10F7900078EF80E090E015C020E038EF40E050E0E6
:10F7A0000DC08FE30E9496F8D3CE20E030E042E017
:10F7B00050E004C020E030EF41E050E060E070E055
:10F7C000CB010E9485F9D82E892F0E9496F88D2DA5
:10F7D00003C08B3119F08FE30E9496F821E007B641
:10F7E00000FCFDCFB2CE0E94CCF90E94C7FC589815
:10F7F00027982F9888E10FB6F894809360001092B4
:10F8000060000FBE0C94000080E090E00F900F901D
:10F810000F900F90DF91CF911F910F91FF90DF908C
:10F82000CF90089580E090E0DC0123E0FC01A093FC
:10F830005B0020935700E89507B600FCFDCF9F5F63
:10F84000AF4FBF4F811530EF930731E0A307B105EC
:10F8500069F781E180935700E89508950F931F930E
:10F86000A0E0B0E08A019B010F5F1F4F2F4F3F4F79
:10F870006BBFFA014791FC014193CF011196A1158D
:10F88000F1E0BF0719F0B901A801ECCF1F910F916A
:10F8900008958F929F92AF92BF92CF92DF92EF9294
:10F8A000FF92F999FECF211105C0C12CD12C760110
:10F8B000A1E00BC023E0FB0180935B002093570085
:10F8C000E89507B600FCFDCFF0CFFA01EC0DFD1D69
:10F8D000B08146015701860E971EA81EB91E2181D0
:10F8E00030E0322F22272B0F311D0901F401A092A5
:10F8F0005B00A0935700E895112422E0C20ED11CB2
:10F90000E11CF11CC11421E0D206E104F104E9F686
:10F9100025E0FB0180935B0020935700E89507B634
:10F9200000FCFDCF81E180935700E895FF90EF90B8
:10F93000DF90CF90BF90AF909F908F900895CF931E
:10F94000DF93E3E0F0E089E080935700E491E3FF88
:10F950000BC0C0E0D0E06FEFCE010E9448FD2196C1
:10F96000CF3F8FE0D807B9F7DF91CF9108958CE0B2
:10F9700090E09093C5008093C40082E08093C00023
:10F9800088E18093C10086E08093C20008951092C0
:10F99000C0001092C10086E08093C2001092C500A2
:10F9A0001092C400089527E031E0FC0131832083E8
:10F9B00080E0089582E008952FB7613030EF73073B
:10F9C00031E08307910590F4F89433E0FB018093D4
:10F9D0005B0030935700E89507B600FCFDCF81E14E
:10F9E00080935700E8952FBF80E0089583E0089545
:10F9F0002FB7F89480E098EFA0E0B0E033E0FC018E
:10FA0000A0935B0030935700E89507B600FCFDCF4C
:10FA10009F5FAF4FBF4F811540EF940741E0A407B0
:10FA2000B10569F781E180935700E8952FBF80E029
:10FA30000895CF93CFB7613030EF730731E083077C
:10FA4000910530F4F8940E9449FCCFBF80E001C0DA
:10FA500083E0CF91089578508F4F9F4F0C9419FDFC
:10FA6000DC01CB01FC01F999FECF06C0F2BDE1BD7E
:10FA7000F89A319600B40D9241505040B8F708956D
:10FA8000F999FECF92BD81BDF89A992780B5089566
:10FA9000262FF999FECF92BD81BDF89A019700B447
:10FAA000021639F01FBA20BD0FB6F894FA9AF99AE7
:10FAB0000FBE0895DC01CB0103C02D910E9465FDAE
:10FAC00041505040D0F70895262FF999FECF1FBA24
:10FAD00092BD81BD20BD0FB6F894FA9AF99A0FBE77
:08FAE00001960895F894FFCF90
:02FAE80001001B
:040000031000F000F9
:00000001FF
