:020000021000EC
:10F000000C944FF80C946EF80C946EF80C946EF807
:10F010000C946EF80C946EF80C946EF80C946EF8D8
:10F020000C946EF80C946EF80C946EF80C946EF8C8
:10F030000C946EF80C946EF80C946EF80C946EF8B8
:10F040000C946EF80C946EF80C946EF80C946EF8A8
:10F050000C946EF80C946EF80C946EF80C946EF898
:10F060000C946EF80C946EF80C946EF80C946EF888
:10F070000C946EF80C946EF80C946EF80C946EF878
:10F080000C946EF80C946EF80C946EF858426A0169
:10F09000DDFCE4FCE6FC23FD000002FD35FD11244F
:10F0A0001FBECFEFD0E4DEBFCDBF11E0A0E0B1E0E6
:10F0B000ECEFFAEF01E00BBF02C007900D92A23017
:10F0C000B107D9F712E0A2E0B1E001C01D92A23071
:10F0D000B107E1F70E944FFA0C947CFD0C9400F804
:10F0E0009C012627622F62956227062E66956695FB
:10F0F0006025062E669560256770022E232F669583
:10F1000007946795302D2627069467953025262786
:10F11000C901089590910001923050F48091C0008F
:10F1200087FFFACF81E0809300018091C6000895A7
:10F13000FFCF90910001923058F48093C6008091E7
:10F14000C00086FFFCCF8091C00080648093C00027
:10F1500008950E948AF88F930E948AF83F91282F81
:10F16000C9010895AF92BF92CF92DF92EF92FF92C2
:10F170000F931F93CF93DF931F92CDB7DEB77C0120
:10F180005A01A89542E0C42E41E0D42E00E010E0E0
:10F190000E151F0528F469830E948AF8698101C051
:10F1A0008FEFF60181936F010F5F1F4F0115F1E0A3
:10F1B0001F0771F76534B1F4F50160817181A70112
:10F1C00082E091E00E9464FDF501008111812281BD
:10F1D00033810E0D1F1D211D311D008311832283DC
:10F1E00033831EC06634F1F4F50180819181A281E0
:10F1F000B381F694E794AC01BD014E0D5F1D611D16
:10F20000711D4083518362837383BC01CD01660FFE
:10F21000771F881F991F21E042E051E00E944FFCB8
:10F220008DE001C08FE30F90DF91CF911F910F917F
:10F23000FF90EF90DF90CF90BF90AF900895EF9246
:10F24000FF920F931F93CF93DF937C01EA01653404
:10F25000B1F468817981AC0182E091E00E943AFDCD
:10F2600088819981AA81BB818E0D9F1DA11DB11D31
:10F2700088839983AA83BB83C2E0D1E03CC0663413
:10F2800009F03FC088819981AA81BB81880F991FAD
:10F29000AA1FBB1F88839983AA83BB8342E051E0E6
:10F2A000B701640F751F88819981AA81BB81ABBFAB
:10F2B000FC018791FA018193AF0107B600FCFDCFF5
:10F2C000088119812A813B810F5F1F4F2F4F3F4FCC
:10F2D000088319832A833B834617570721F73695FE
:10F2E000279517950795088319832A833B83C4CFF5
:10F2F00089910E9499F8CE01825091408E159F0508
:10F30000BCF3DF91CF911F910F91FF90EF90089583
:10F310008F929F92AF92BF92CF92DF92EF92FF9225
:10F320000F931F93CF93DF936B017C0149015A0127
:10F3300000E011E0C0E0D0E01FC0011581E0180737
:10F3400061F4B701A60182E091E00E943EFC8FEFDC
:10F35000D81AE80AF80A00E010E0F801EE5FFE4F64
:10F360006081CE010E9470F8EC010F5F1F4F81E0B9
:10F37000881A9108A108B10881149104A104B1046C
:10F38000E1F6CE01DF91CF911F910F91FF90EF90A9
:10F39000DF90CF90BF90AF909F908F900895CF92C5
:10F3A000DF92EF92FF92CF93DF9340E05FEE61E058
:10F3B00070E082E091E00E943EFC8091FC01883583
:10F3C00009F066C08091FD01823409F061C080912E
:10F3D000FE01893409F05CC08091FF01863409F098
:10F3E00057C09091000280E0209101027C01E22A46
:10F3F0002AEF37EF40E050E060E078EF80E090E007
:10F400000E9488F9C6E0D0E06FEF0E9470F8219763
:10F41000D9F7E816F90641F0DF91CF91FF90EF9010
:10F42000DF90CF900C9402FDC12CD12C7601CFEF50
:10F4300085B1805885B9B701A60158506F4F7F4FED
:10F4400082E091E00E943EFCC11487EFD806E104FF
:10F45000F10461F4C093FC01C093FD01C093FE016F
:10F46000C093FF01C0930002C093010221E042E07B
:10F4700051E0C701B6010E944FFC8FEFD81AE80A8D
:10F48000F80AC11488EFD806E104F10489F6C4CF64
:10F49000DF91CF91FF90EF90DF90CF900895AF92E2
:10F4A000BF92DF92EF92FF920F931F93CF93DF9360
:10F4B00000D000D01F92CDB7DEB719821A821B820E
:10F4C0001C8210920001279A2F9A0E94C1FC589A20
:10F4D00014BE88E10FB6F89480936000109260002B
:10F4E0000FBE36E080EE93E9A4E0B0E041E0009783
:10F4F000A105B10521F00197A109B10908C085B1A5
:10F50000805885B9315080EE93E9A4E0B0E02091B5
:10F51000C00027FF04C04093000121E001C020E0AB
:10F52000A895211103C03111E2CF01C021E039E2D9
:10F5300088E190E00FB6F894A895809360000FBE24
:10F540003093600000E010E0DD24D39457C185B112
:10F55000805885B90E948AF8A895813611F489E50A
:10F5600047C1813429F40E94A9F8A0E0B0E008C0A6
:10F57000883461F40E948AF8A82F0E94A9F8BB275A
:10F5800089839A83AB83BC838DE032C1853629F4AD
:10F590000E9422FC0E94A9FCF7CF823629F489E55B
:10F5A0000E9499F881E0ADC0823489F40E94A9F8E4
:10F5B000B82E082F192F9D830E948AF8AE014F5F45
:10F5C0005F4F682F8B2D9D810E94B2F811C1873645
:10F5D00089F40E94A9F8B82E082F192F9D830E9444
:10F5E0008AF8AE014F5F5F4F682F8B2D9D810E947F
:10F5F0001FF900C1823589F489819A81AB81BC8170
:10F60000880F991FAA1FBB1FABBFFC01A790B69024
:10F610008B2D0E9499F88A2D52C0833629F40E94BE
:10F620008AF8082F10E0B0CF8334C9F40E948AF81A
:10F63000F82EE12C0E291F2989819A81AB81BC818A
:10F64000AC01BD01440F551F661F771F0801FA0169
:10F6500060935B00D0925700E895112426C08D3648
:10F66000B9F489819A81AB81BC81811528EF920719
:10F67000A105B10508F0BBC0880F991FAA1FBB1FC9
:10F6800025E0FC01A0935B0020935700E8957CCF18
:10F69000843479F40E948AF8682F89819A810E94C3
:10F6A0006EFD89819A81AB81BC810196A11DB11D3E
:10F6B00067CF843691F489819A810E944AFD0E9425
:10F6C00099F889819A81AB81BC810196A11DB11DF8
:10F6D00089839A83AB83BC838DC0803509F454CF72
:10F6E0008C3409F451CF853429F48DE00E9499F8C7
:10F6F00020E081C0803711F483E57AC0843729F493
:10F700008BE70E9499F880E073C0982F9857923049
:10F7100010F0843519F40E948AF836CF8335A1F4AD
:10F7200088E50E9499F882E40E9499F88FE60E9489
:10F7300099F88FE60E9499F884E70E9499F88BE285
:10F740000E9499F88BE254C0863529F481E30E9427
:10F7500099F887E34DC0833741F485E00E9499F81A
:10F7600087E90E9499F88EE143C08836F1F50E943E
:10F770008AF8863431F128F4813441F18234E9F495
:10F7800005C0813661F08437C1F40EC020E030E15D
:10F7900040E050E060E070EF81E090E01EC020E0CB
:10F7A00038EF40E050E016C020E038EF40E050E095
:10F7B00060E078EF80E090E010C08FE30E9499F85D
:10F7C000C6CE20E030E042E050E004C020E030EF60
:10F7D00041E050E060E070E0CB010E9488F9B82E73
:10F7E000892F0E9499F88B2D03C08B3119F08FE37C
:10F7F0000E9499F821E007B600FCFDCF2111A7CEA9
:10F800000E94CFF90E94D1FC589827982F9888E140
:10F810000FB6F89480936000109260000FBE0C94B5
:10F82000000080E090E00F900F900F900F900F90ED
:10F83000DF91CF911F910F91FF90EF90DF90BF90DC
:10F84000AF90089580E090E0DC0123E0FC01A093FC
:10F850005B0020935700E89507B600FCFDCF9F5F43
:10F86000AF4FBF4F811530EF930731E0A307B105CC
:10F8700069F781E180935700E8950895DC0180E005
:10F8800090E06BBFFA0127912D9301964F5F5F4F78
:10F890006F4F7F4F811521E0920799F708958F925E
:10F8A0009F92AF92BF92CF92DF92EF92FF92CF934F
:10F8B000DF93F999FECF222351F023E0FB018093DF
:10F8C0005B0020935700E89507B600FCFDCFC12CE4
:10F8D000D12C7601A1E0FA01EC0DFD1D208146013D
:10F8E0005701860E971EA81EB91E3181D32FE0E066
:10F8F000CE2FFE01E20FF11D9F010901F401A0923C
:10F900005B00A0935700E8951124F2E0CF0ED11CC4
:10F91000E11CF11CC11421E0D206E104F104D9F686
:10F9200025E0FB0180935B0020935700E89507B624
:10F9300000FCFDCF81E180935700E895DF91CF91E6
:10F94000FF90EF90DF90CF90BF90AF909F908F90FF
:10F950000895CF93DF93E3E0F0E089E080935700D0
:10F96000E491E3FF0BC0C0E0D0E06FEFCE010E9456
:10F9700052FD2196CF3F8FE0D807B9F7DF91CF91A5
:10F9800008958CE090E09093C5008093C40082E0DD
:10F990008093C00088E18093C10086E08093C2001C
:10F9A00008951092C0001092C10086E08093C200BA
:10F9B0001092C5001092C400089527E031E0FC01C8
:10F9C0003183208380E0089582E008952FB761306D
:10F9D00030EF730731E08307910590F4F89433E03A
:10F9E000FB0180935B0030935700E89507B600FC5D
:10F9F000FDCF81E180935700E8952FBF80E0089507
:10FA000083E008952FB7F89480E098EFA0E0B0E08D
:10FA100033E0FC01A0935B0030935700E89507B6F4
:10FA200000FCFDCF9F5FAF4FBF4F811540EF9407A4
:10FA300041E0A407B10569F781E180935700E8959B
:10FA40002FBF80E00895CF93CFB7613030EF7307B9
:10FA500031E08307910530F4F8940E944FFCCFBF4A
:10FA600080E001C083E0CF91089578508F4F9F4F81
:10FA70000C9423FDDC01CB01FC01F999FECF06C0FB
:10FA8000F2BDE1BDF89A319600B40D92415050405C
:10FA9000B8F70895F999FECF92BD81BDF89A9927DC
:10FAA00080B50895262FF999FECF92BD81BDF89AB1
:10FAB000019700B4021639F01FBA20BD0FB6F894B2
:10FAC000FA9AF99A0FBE0895DC01CB0103C02D917B
:10FAD0000E946FFD41505040D0F70895262FF999AC
:10FAE000FECF1FBA92BD81BD20BD0FB6F894FA9A21
:0CFAF000F99A0FBE01960895F894FFCF1C
:02FAFC00010007
:040000031000F000F9
:00000001FF
