:10F000000C9447780C9464780C9464780C9464782D
:10F010000C9464780C9464780C9464780C94647800
:10F020000C9464780C9464780C9464780C946478F0
:10F030000C9464780C9464780C9464780C946478E0
:10F040000C9464780C9464780C9464780C946478D0
:10F050000C9464780C9464780C9464780C946478C0
:10F060000C9464780C9464780C9464780C946478B0
:10F070000C9464780C9464780C94647858426A0117
:10F080008B7C927C947CC47C0000AD7CD57C11246C
:10F090001FBECFEFD0E1DEBFCDBF11E0A0E0B1E0F9
:10F0A000ECE3FAEF02C005900D92A230B107D9F758
:10F0B00022E0A2E0B1E001C01D92A230B207E1F768
:10F0C0000E943E7A0C941C7D0C9400788627682F51
:10F0D00062956827062E669566956025062E6695CC
:10F0E00060256770082E892F669507946795902D87
:10F0F00086270694679590258627089590910001AC
:10F100009230F0F78091C00087FFFACF81E08093C2
:10F1100000018091C600089590910001923058F44A
:10F120008093C6008091C00086FFFCCF8091C00014
:10F1300080648093C00008950E947E788F930E941F
:10F140007E789F91882F0895AF92BF92CF92DF92E1
:10F15000EF92FF920F931F93CF93DF931F92CDB740
:10F16000DEB77C015A01A89542E0C42E41E0D42EBE
:10F1700000E010E00E151F0528F469830E947E78D8
:10F18000698101C08FEFF60181936F010F5F1F4FFF
:10F190000115F1E01F0771F76534B1F4F5016081E5
:10F1A0007181A70182E091E00E94047DF501008158
:10F1B0001181228133810E0D1F1D211D311D008300
:10F1C0001183228333831EC06634F1F4F5018081FC
:10F1D0009181A281B381F694E794AC01BD014E0DFB
:10F1E0005F1D611D711D4083518362837383BC0168
:10F1F000CD01660F771F881F991F21E042E051E083
:10F200000E94177C8DE001C08FE30F90DF91CF91BA
:10F210001F910F91FF90EF90DF90CF90BF90AF9034
:10F220000895EF92FF920F931F93CF93DF937C018A
:10F23000EA016534B1F468817981AC0182E091E042
:10F240000E94DA7C88819981AA81BB818E0D9F1DE5
:10F25000A11DB11D88839983AA83BB83C2E0D1E03D
:10F2600032C06634D1F588819981AA81BB81880F2B
:10F27000991FAA1FBB1F88839983AA83BB83A2E01F
:10F28000B1E0C7018E5F9E4FE881F981E491ED9373
:10F2900007B600FCFDCF088119812A813B810F5FF1
:10F2A0001F4F2F4F3F4F088319832A833B83A81793
:10F2B000B90751F736952795179507950883198350
:10F2C0002A833B83CBCFCE01825091408E159F0580
:10F2D00024F489910E948C78F6CFDF91CF911F9111
:10F2E0000F91FF90EF9008958F929F92AF92BF92EF
:10F2F000CF92DF92EF92FF920F931F93CF93DF9302
:10F300006B017C0149015A0100E011E0C0E0D0E04E
:10F3100081149104A104B10401F1011581E01807E1
:10F3200061F4B701A60182E091E00E94077C8FEFB3
:10F33000D81AE80AF80A00E010E0F801EE5FFE4F84
:10F340006081CE010E946678EC010F5F1F4F81E063
:10F35000881A9108A108B108DBCFCE01DF91CF91C7
:10F360001F910F91FF90EF90DF90CF90BF90AF90E3
:10F370009F908F900895CF92DF92EF92FF92CF935C
:10F38000DF9340E05FEE60E070E082E091E00E9499
:10F39000077C8091FC01883509F069C08091FD01EE
:10F3A000823409F064C08091FE01893409F05FC0A5
:10F3B0008091FF01863409F05AC0E0900002F12CE0
:10F3C000FE2CEE2480910102E82A2AEF37E740E084
:10F3D00050E060E078E780E090E00E947479C6E059
:10F3E000D0E06FEF0E94667821972097D1F7E8165A
:10F3F000F90641F0DF91CF91FF90EF90DF90CF9031
:10F400000C94AD7CC12CD12C7601CFEF85B1805806
:10F4100085B9B701A60158586F4F7F4F82E091E040
:10F420000E94077CC11487E7D806E104F10491F03B
:10F4300021E042E051E0C701B6010E94177C8FEF46
:10F44000D81AE80AF80AC11488E7D806E104F104DA
:10F45000E9F6D0CFC093FC01C093FD01C093FE013B
:10F46000C093FF01C0930002C0930102E1CFDF917E
:10F47000CF91FF90EF90DF90CF900895CF92DF92E1
:10F48000EF92FF920F931F93CF93DF9300D000D0A2
:10F49000CDB7DEB719821A821B821C82109200013E
:10F4A000279A2F9A0E946F7C589A84B7877F84BFCF
:10F4B00088E10FB6F89480936000109260000FBE50
:10F4C00036E080EE93E9A4E0B0E041E00097A105CA
:10F4D000B10521F00197A109B10908C085B1805893
:10F4E00085B9315080EE93E9A4E0B0E02091C000EE
:10F4F00027FF04C04093000121E001C020E0A8954F
:10F50000211103C03111E2CF01C021E039E288E1CD
:10F5100090E00FB6F894A895809360000FBE3093EA
:10F52000600000E010E0FF24F39445E0E42E222385
:10F5300009F43AC185B1805885B90E947E78A895B2
:10F54000813611F489E529C1813429F40E949C781F
:10F55000A0E0B0E008C0883461F40E947E78A82F53
:10F560000E949C78BB2789839A83AB83BC838DE000
:10F5700014C1853629F40E94F47B0E94577CF7CF92
:10F58000823629F489E50E948C7881E091C082342A
:10F5900069F40E949C788C010E947E78AE014F5FD6
:10F5A0005F4F682FC8010E94A478F7C0873669F4BE
:10F5B0000E949C788C010E947E78AE014F5F5F4F65
:10F5C000682FC8010E941179EAC0823559F4E98197
:10F5D000FA81EE0FFF1FC590D4908D2D0E948C787C
:10F5E0008C2D44C0833629F40E947E78082F10E0C9
:10F5F000BECF833481F40E947E78182B89819A8152
:10F60000AB81BC81FC01EE0FFF1F0801F092570097
:10F61000E895112421C08D3691F489819A81AB81BE
:10F62000BC81811528E79207A105B10508F0B4C097
:10F63000FC01EE0FFF1FE0925700E89598CF84344D
:10F6400079F40E947E78682F89819A810E940E7DCC
:10F6500089819A81AB81BC810196A11DB11D83CFA7
:10F66000843691F489819A810E94EA7C0E948C7888
:10F6700089819A81AB81BC810196A11DB11D8983CD
:10F680009A83AB83BC838BC0803509F470CF8C34F4
:10F6900009F46DCF853429F48DE00E948C7820E048
:10F6A0007FC0803711F483E578C0843729F48BE775
:10F6B0000E948C7880E071C098E8980F923010F02A
:10F6C000843519F40E947E7852CF8335A1F488E501
:10F6D0000E948C7882E40E948C788FE60E948C785D
:10F6E0008FE60E948C7884E70E948C788BE20E94DF
:10F6F0008C788BE252C0863529F481E30E948C78A5
:10F7000087E34BC0833741F48AE00E948C7886E916
:10F710000E948C788EE141C08836E1F50E947E78A7
:10F72000863421F168F4813431F18234D9F420E057
:10F7300030E140E050E060E070EF80E090E022C017
:10F74000813659F0843771F420E038E740E050E02A
:10F7500060E078E780E090E015C020E038E740E026
:10F7600050E00DC08FE30E948C78E4CE20E030E0C2
:10F7700041E050E004C020E030EF40E050E060E0C5
:10F7800070E0CB010E947479D82E892F0E948C786A
:10F790008D2D03C08B3119F08FE30E948C7821E00E
:10F7A00007B600FCFDCFC3CE0E94BB790E947F7CD0
:10F7B000589827982F9888E10FB6F89480936000A6
:10F7C000109260000FBE0C94000080E090E00F905B
:10F7D0000F900F900F90DF91CF911F910F91FF909D
:10F7E000EF90DF90CF900895E0E0F0E083E0809329
:10F7F0005700E89507B600FCFDCFF395E11590EFB3
:10F80000F907A9F781E180935700E895089520E072
:10F8100030E0F901E40FF51FE491DC01ED93CD0137
:10F820002F5F3F4F2115B1E03B0799F708950F93E4
:10F830001F93CF93DF93F999FECF211105C020E0EC
:10F8400030E0EB0111E009C023E0FB0120935700F9
:10F85000E89507B600FCFDCFF2CFDA01A20FB31F87
:10F860000C91F901E60FF71F1196AC91B0E0BA2F99
:10F87000AA27A00FB11D0D0110935700E895112480
:10F880002E5F3F4F2115F1E03F0739F785E0FE017C
:10F8900080935700E89507B600FCFDCF81E1809387
:10F8A0005700E895DF91CF911F910F910895CF9365
:10F8B000DF93E3E0F0E089E080935700E491E3FF19
:10F8C0000BC0C0E0D0E06FEFCE010E94F27C219629
:10F8D000CF3F87E0D807B9F7DF91CF91089580E156
:10F8E00090E09093C5008093C40082E08093C000B4
:10F8F00088E18093C10086E08093C2000895109251
:10F90000C0001092C10086E08093C2001092C50032
:10F910001092C400089527E031E0FC013183208378
:10F9200080E0089582E008952FB7613030EF7307CB
:10F930008105910580F4F89433E0FB013093570082
:10F94000E89507B600FCFDCF81E180935700E8956C
:10F950002FBF80E0089583E008958FB7F894E0E02A
:10F96000F8E793E090935700E89507B600FCFDCFC9
:10F97000F395E11520EFF207A9F791E19093570075
:10F98000E8958FBF80E00895CF93CFB7613030EF17
:10F9900073078105910530F4F8940E94177CCFBF5E
:10F9A00080E001C083E0CF91089578588F4F9F4F3A
:10F9B0000C94C47CDC01CB01FC01F999FECF06C09C
:10F9C000F2BDE1BDF89A319600B40D92415050401D
:10F9D000B8F70895F999FECF92BD81BDF89A99279D
:10F9E00080B50895262FF999FECF92BD81BDF89A72
:10F9F000019700B4021639F01FBA20BD0FB6F89473
:10FA0000FA9AF99A0FBE0895DC01CB0103C02D913B
:10FA10000E940F7D41505040D0F70895262FF9994C
:10FA2000FECF1FBA92BD81BD20BD0FB6F894FA9AE1
:0CFA3000F99A0FBE01960895F894FFCFDC
:02FA3C000100C7
:040000030000F00009
:00000001FF
