:10F000000C9441780C945E780C945E780C945E7845
:10F010000C945E780C945E780C945E780C945E7818
:10F020000C945E780C945E780C945E780C945E7808
:10F030000C945E780C945E780C945E780C945E78F8
:10F040000C945E780C945E780C945E780C945E78E8
:10F050000C945E780C945E780C945E780C945E78D8
:10F060000C945E780C945E780C945E780C945E78C8
:10F0700058426A018C7C937C957CC57C0000AE7CF8
:10F08000D67C11241FBECFEFD0E1DEBFCDBF11E093
:10F09000A0E0B1E0EEE3FAEF02C005900D92A230DD
:10F0A000B107D9F712E0A2E0B1E001C01D92A23091
:10F0B000B107E1F70E94387A0C941D7D0C9400781A
:10F0C0009C012627622F62956227062E669566951B
:10F0D0006025062E669560256770022E232F6695A3
:10F0E00007946795302D26270694679530252627A7
:10F0F000C901089590910001923050F48091C000B0
:10F1000087FFFACF81E0809300018091C6000895C7
:10F11000FFCF90910001923058F48093C600809107
:10F12000C00086FFFCCF8091C00080648093C00047
:10F1300008950E947A788F930E947A783F91282FC1
:10F14000C9010895AF92BF92CF92DF92EF92FF92E2
:10F150000F931F93CF93DF931F92CDB7DEB77C0140
:10F160005A01A89542E0C42E41E0D42E00E010E000
:10F170000E151F0528F469830E947A78698101C001
:10F180008FEFF60181936F010F5F1F4F0115F1E0C3
:10F190001F0771F76534B1F4F50160817181A70132
:10F1A00082E091E00E94057DF501008111812281BC
:10F1B00033810E0D1F1D211D311D008311832283FC
:10F1C00033831EC06634F1F4F50180819181A28100
:10F1D000B381F694E794AC01BD014E0D5F1D611D36
:10F1E000711D4083518362837383BC01CD01660F1F
:10F1F000771F881F991F21E042E051E00E941F7C89
:10F200008DE001C08FE30F90DF91CF911F910F919F
:10F21000FF90EF90DF90CF90BF90AF900895EF9266
:10F22000FF920F931F93CF93DF937C01EA01653424
:10F23000B1F468817981AC0182E091E00E94DB7CCD
:10F2400088819981AA81BB818E0D9F1DA11DB11D51
:10F2500088839983AA83BB83C2E0D1E035C066343A
:10F26000C9F588819981AA81BB81880F991FAA1F3E
:10F27000BB1F88839983AA83BB83A2E0B1E0C70147
:10F280008A0F9B1FE881F981E491ED9307B600FC9A
:10F29000FDCF088119812A813B810F5F1F4F2F4FBE
:10F2A0003F4F088319832A833B83A817B90751F777
:10F2B0003695279517950795088319832A833B83ED
:10F2C000CBCF89910E948978CE01825091408E15D2
:10F2D0009F05BCF3DF91CF911F910F91FF90EF90AD
:10F2E00008958F929F92AF92BF92CF92DF92EF924A
:10F2F000FF920F931F93CF93DF936B017C01490122
:10F300005A0100E011E0C0E0D0E01FC0011581E02B
:10F31000180761F4B701A60182E091E00E94117C18
:10F320008FEFD81AE80AF80A00E010E0F801EE5F63
:10F33000FE4F6081CE010E946078EC010F5F1F4F8D
:10F3400081E0881A9108A108B10881149104A104F0
:10F35000B104E1F6CE01DF91CF911F910F91FF90A3
:10F36000EF90DF90CF90BF90AF909F908F900895D7
:10F37000CF92DF92EF92FF92CF93DF9340E05FEE68
:10F3800060E070E082E091E00E94117C8091FC01DD
:10F39000883509F066C08091FD01823409F061C0B2
:10F3A0008091FE01893409F05CC08091FF018634B0
:10F3B00009F057C09091000280E0209101027C0189
:10F3C000E22A2AEF37E740E050E060E078E780E0AB
:10F3D00090E00E947179C6E0D0E06FEF0E94607803
:10F3E0002197D9F7E816F90641F0DF91CF91FF9008
:10F3F000EF90DF90CF900C94AE7CC12CD12C760195
:10F40000CFEF85B1805885B9B701A60158586F4F25
:10F410007F4F82E091E00E94117CC11487E7D806FB
:10F42000E104F10461F4C093FC01C093FD01C093B9
:10F43000FE01C093FF01C0930002C093010221E0CE
:10F4400042E051E0C701B6010E941F7C8FEFD81A3D
:10F45000E80AF80AC11488E7D806E104F10489F63D
:10F46000C4CFDF91CF91FF90EF90DF90CF900895C0
:10F47000AF92BF92CF92DF92EF92FF920F931F93C2
:10F48000CF93DF9300D000D01F92CDB7DEB71982A3
:10F490001A821B821C8210920001279A2F9A0E94C6
:10F4A000707C589A14BE88E10FB6F894809360007F
:10F4B000109260000FBE36E080EE93E9A4E0B0E069
:10F4C00041E00097A105B10521F00197A109B1091B
:10F4D00008C085B1805885B9315080EE93E9A4E029
:10F4E000B0E02091C00027FF04C04093000121E05C
:10F4F00001C020E0A895211103C03111E2CF01C065
:10F5000021E039E288E190E00FB6F894A895809365
:10F5100060000FBE3093600000E010E0DD24D39463
:10F5200045E0C42E46C185B1805885B90E947A78DD
:10F53000A895813611F489E536C1813429F40E94F9
:10F540009978A0E0B0E008C0883461F40E947A782D
:10F55000A82F0E949978BB2789839A83AB83BC83A9
:10F560008DE021C1853629F40E94FE7B0E94587CE3
:10F57000F7CF823629F489E50E94897881E09CC022
:10F58000823489F40E949978B82E082F192F9D8310
:10F590000E947A78AE014F5F5F4F682F8B2D9D815F
:10F5A0000E94A27800C1873689F40E949978B82E0B
:10F5B000082F192F9D830E947A78AE014F5F5F4F0D
:10F5C000682F8B2D9D810E940F79EFC0823559F4F1
:10F5D000E981FA81EE0FFF1FA590B4908B2D0E9458
:10F5E00089788A2D47C0833629F40E947A78082FBB
:10F5F00010E0B6CF833499F40E947A78F82EE12C8B
:10F600000E291F2989819A81AB81BC81FC01EE0FF3
:10F61000FF1F0801D0925700E895112421C08D36B4
:10F6200091F489819A81AB81BC81811528E7920789
:10F63000A105B10508F0B6C0FC01EE0FFF1FC09296
:10F640005700E8958DCF843479F40E947A78682F3A
:10F6500089819A810E940F7D89819A81AB81BC81C9
:10F660000196A11DB11D78CF843691F489819A81CC
:10F670000E94EB7C0E94897889819A81AB81BC8150
:10F680000196A11DB11D89839A83AB83BC838DC074
:10F69000803509F465CF8C3409F462CF853429F4C0
:10F6A0008DE00E94897820E081C0803711F483E5E5
:10F6B0007AC0843729F48BE70E94897880E073C090
:10F6C000982F9857923010F0843519F40E947A7868
:10F6D00047CF8335A1F488E50E94897882E40E94AF
:10F6E00089788FE60E9489788FE60E94897884E77E
:10F6F0000E9489788BE20E9489788BE254C086351B
:10F7000029F481E30E94897887E34DC0833741F46F
:10F7100089E00E94897886E90E9489788EE143C059
:10F720008836F1F50E947A78863431F128F48134F4
:10F7300041F18234E9F405C0813661F08437C1F4C7
:10F740000EC020E030E140E050E060E070EF80E08B
:10F7500090E01EC020E038E740E050E016C020E016
:10F7600038E740E050E060E078E780E090E010C0EB
:10F770008FE30E948978D7CE20E030E041E050E06E
:10F7800004C020E030EF40E050E060E070E0CB01EA
:10F790000E947179B82E892F0E9489788B2D03C021
:10F7A0008B3119F08FE30E94897821E007B600FCC5
:10F7B000FDCF2111B8CE0E94B8790E94807C589864
:10F7C00027982F9888E10FB6F894809360001092E4
:10F7D00060000FBE0C94000080E090E00F900F904E
:10F7E0000F900F900F90DF91CF911F910F91FF908D
:10F7F000EF90DF90CF90BF90AF900895E0E0F0E001
:10F8000083E080935700E89507B600FCFDCFF395A1
:10F81000E11590EFF907A9F781E180935700E8958A
:10F820000895DC0180E090E0FC01E40FF51FE49115
:10F83000ED930196811521E09207B1F708951F938A
:10F84000CF93DF93F999FECF222341F023E0FB0110
:10F8500020935700E89507B600FCFDCF20E030E08C
:10F8600011E0EA01C20FD31F8881F901E60FF71FEB
:10F87000B981A0E0ED01C80FD11D0E011093570012
:10F88000E89511242E5F3F4F2115D1E03D0749F740
:10F8900085E0FB0180935700E89507B600FCFDCF9B
:10F8A00081E180935700E895DF91CF911F910895F2
:10F8B000CF93DF93E3E0F0E089E080935700E49199
:10F8C000E3FF0BC0C0E0D0E06FEFCE010E94F37CFD
:10F8D0002196CF3F87E0D807B9F7DF91CF91089500
:10F8E00080E190E09093C5008093C40082E0809313
:10F8F000C00088E18093C10086E08093C200089533
:10F900001092C0001092C10086E08093C200109255
:10F91000C5001092C400089527E031E0FC01318356
:10F92000208380E0089582E008952FB7613030EFA2
:10F9300073078105910580F4F89433E0FB0130935F
:10F940005700E89507B600FCFDCF81E18093570092
:10F95000E8952FBF80E0089583E008958FB7F8946D
:10F96000E0E0F8E793E090935700E89507B600FCD5
:10F97000FDCFF395E11520EFF207A9F791E1909300
:10F980005700E8958FBF80E00895CF93CFB76130DF
:10F9900030EF73078105910530F4F8940E941F7CC5
:10F9A000CFBF80E001C083E0CF91089578588F4F9A
:10F9B0009F4F0C94C57CDC01CB01FC01F999FECF73
:10F9C00006C0F2BDE1BDF89A319600B40D924150E7
:10F9D0005040B8F70895F999FECF92BD81BDF89ACD
:10F9E000992780B50895262FF999FECF92BD81BD44
:10F9F000F89A019700B4021639F01FBA20BD0FB66D
:10FA0000F894FA9AF99A0FBE0895DC01CB0103C06D
:10FA10002D910E94107D41505040D0F70895262F1F
:10FA2000F999FECF1FBA92BD81BD20BD0FB6F894E3
:0EFA3000FA9AF99A0FBE01960895F894FFCF46
:02FA3E000100C5
:040000030000F00009
:00000001FF
