:020000021000EC
:10F000000C9446F80C9465F80C9465F80C9465F82B
:10F010000C9465F80C9465F80C9465F80C9465F8FC
:10F020000C9465F80C9465F80C9465F80C9465F8EC
:10F030000C9465F80C9465F80C9465F80C9465F8DC
:10F040000C9465F80C9465F80C9465F80C9465F8CC
:10F050000C9465F80C9465F80C9465F80C9465F8BC
:10F060000C9465F80C9465F80C9465F80C9465F8AC
:10F070000C9465F80C9465F80C9465F80C9465F89C
:10F080000C9465F80C9465F80C9465F811241FBE77
:10F09000CFEFD0E4DEBFCDBF11E0A0E0B1E0EEE6FF
:10F0A000FBEF01E00BBF02C007900D92A230B10749
:10F0B000D9F712E0A2E0B1E001C01D92AD30B10776
:10F0C000E1F70E94E5F90C94B5FD0C9400F8982F37
:10F0D0009595959595959595905D8F708A301CF1D5
:10F0E000282F295A80910201813019F0823071F065
:10F0F00008958091C00085FFFCCF9093C600809159
:10F10000C00085FFFCCF2093C60008958091C80001
:10F1100085FFFCCF9093CE008091C80085FFFCCF87
:10F120002093CE000895282F205DDCCF982F80916A
:10F130000201813019F0823041F008958091C000C1
:10F1400085FFFCCF9093C60008958091C80085FF8D
:10F15000FCCF9093CE000895EF92FF920F931F93F0
:10F1600080910201813069F1823031F080E01F919D
:10F170000F91FF90EF900895EE24FF248701809176
:10F18000C80087FD17C00894E11CF11C011D111D6A
:10F1900081E0E81682E1F8068AE7080780E01807B0
:10F1A00070F3E0910401F091050109958091C80088
:10F1B00087FFE9CF8091CE001F910F91FF90EF90D4
:10F1C0000895EE24FF2487018091C00087FD17C0B9
:10F1D0000894E11CF11C011D111D81E0E81682E17B
:10F1E000F8068AE7080780E0180770F3E091040149
:10F1F000F091050109958091C00087FFE9CF8091CA
:10F20000C6001F910F91FF90EF9008950E94ACF8F7
:10F21000982F80910201813049F0823091F091362F
:10F220006CF490330CF09053892F08958091C000B6
:10F2300085FFFCCF9093C60091369CF39755892F9C
:10F2400008958091C80085FFFCCF9093CE00E7CF52
:10F250001F930E9406F9182F0E9406F91295107F3D
:10F26000810F1F910895982F20910201992339F061
:10F27000213031F0223061F091509923C9F708957F
:10F280008091C00087FFFCCF8091C6009150F5CFE0
:10F290008091C80087FFFCCF8091CE009150EDCFC8
:10F2A0001F93182F0E94ACF8803249F0809103011F
:10F2B0008F5F80930301853091F11F9108958091B4
:10F2C00002018130B9F08230C1F78091C80085FF1A
:10F2D000FCCF84E18093CE008091C80085FFFCCFF5
:10F2E0001093CE008091C80085FFFCCF80E1809311
:10F2F000CE00E3CF8091C00085FFFCCF84E18093F6
:10F30000C6008091C00085FFFCCF1093C60080919D
:10F31000C00085FFFCCF80E18093C600CECFE09196
:10F320000401F091050109951F9108950E94ACF820
:10F33000803241F0809103018F5F8093030185301B
:10F3400029F1089580910201813089F08230C9F756
:10F350008091C80085FFFCCF84E18093CE0080912E
:10F36000C80085FFFCCF80E18093CE000895809196
:10F37000C00085FFFCCF84E18093C6008091C0006F
:10F3800085FFFCCF80E18093C6000895E0910401E1
:10F39000F09105010995089540E951E08823A1F015
:10F3A0002F9A28EE33E0FA013197F1F721503040DF
:10F3B000D1F72F9828EE33E0FA013197F1F7215079
:10F3C0003040D1F7815061F708952F923F924F92CC
:10F3D0005F926F927F928F929F92AF92BF92CF92E5
:10F3E000DF92EF92FF920F931F93CF93DF9394B727
:10F3F00014BE80916000886180936000109260006C
:10F4000091FF93C381E08093020180E18093C40067
:10F410001092C5001092C00086E08093C20088E17F
:10F420008093C100279A82E00E94CCF914E1812EDA
:10F43000BEE17B2EA7E96A2EF5E05F2EE0E14E2EBD
:10F440003324339471E4272E0E94ACF88033B9F151
:10F45000813309F450C0803409F4D3C0813409F4F5
:10F46000F4C0823479F1853409F4D5C0803539F19E
:10F47000823529F1813509F4C7C2853509F4F3C015
:10F48000863509F4FBC0843609F42DC2843709F4AB
:10F4900069C1853709F420C1863709F4E0C080913D
:10F4A00003018F5F80930301853071F6E0910401C1
:10F4B000F091050109950E94ACF8803349F60E944D
:10F4C00096F9C2CF2091020193E105C0223061F08C
:10F4D0009923A9F391502130C9F78091C00087FF8B
:10F4E000FCCF8091C600F4CF8091C80087FFFCCF8D
:10F4F0008091CE00EDCF0E94ACF8803281F68091F1
:10F500000201813009F440C0823009F09DCF809122
:10F51000C80085FFFCCF8092CE008091C80085FF97
:10F52000FCCF2092CE008091C80085FFFCCFE6E59D
:10F53000E093CE008091C80085FFFCCF82E58093E8
:10F54000CE008091C80085FFFCCFF0E2F093CE00A2
:10F550008091C80085FFFCCFE9E4E093CE00809164
:10F56000C80085FFFCCF83E58093CE008091C80062
:10F5700085FFFCCFF0E5F093CE008091C80085FFB9
:10F58000FCCF4092CE0060CF8091C00085FFFCCFC1
:10F590008092C6008091C00085FFFCCF2092C600FB
:10F5A0008091C00085FFFCCF86E58093C6008091E6
:10F5B000C00085FFFCCFF2E5F093C6008091C0004B
:10F5C00085FFFCCFE0E2E093C6008091C00085FF9C
:10F5D000FCCF89E48093C6008091C00085FFFCCFFA
:10F5E000F3E5F093C6008091C00085FFFCCFE0E515
:10F5F000E093C6008091C00085FFFCCF4092C6001A
:10F6000023CF0E94ACF8863808F459CF0E94ACF89A
:10F610000E9496F919CF2091020194E006C0223091
:10F6200069F0992309F44BCF91502130C1F78091B3
:10F63000C00087FFFCCF8091C600F3CF8091C80047
:10F6400087FFFCCF8091CE00ECCF0E94ACF88038D1
:10F65000B9F18138E9F18238B9F1883969F180E08E
:10F660000E9450F9F1CE0E94ACF8809306010E94EE
:10F67000ACF8809307010E9496F9E6CE0E94ACF8A0
:10F68000803309F43FC22091020192E005C022308C
:10F6900061F0992321F391502130C9F78091C00086
:10F6A00087FFFCCF8091C600F4CF8091C80087FF10
:10F6B000FCCF8091CE00EDCF83E00E9450F9C4CE04
:10F6C00082E00E9450F9C0CE80E10E9450F9BCCE89
:10F6D00081E00E9450F9B8CE0E94ACF8803209F067
:10F6E000DECE80910201813001F1823009F0ACCE92
:10F6F0008091C80085FFFCCF8092CE008091C80029
:10F7000085FFFCCF7092CE008091C80085FFFCCFB2
:10F710006092CE008091C80085FFFCCF5092CE0051
:10F720008091C80085FFFCCF2CCF8091C00085FF61
:10F73000FCCF8092C6008091C00085FFFCCF709204
:10F74000C6008091C00085FFFCCF6092C60080910A
:10F75000C00085FFFCCF5092C6008091C00085FF9D
:10F76000FCCF4CCF0E94ACF8809309020E94ACF809
:10F7700080930802209106013091070137FD3EC1B8
:10F7800080910C028D7F80930C02220F331F3093E7
:10F790000701209306010E94ACF8853409F428C1C2
:10F7A00080910C028E7F80930C020E94ACF8803214
:10F7B00009F04ACEF090020181E0F81609F46DC01C
:10F7C000E2E0FE1609F462C0A0900802B0900902BF
:10F7D000A114B10409F4FBC080910C02EE24E3945F
:10F7E000E82292E0992E9822CC24DD241CC0992096
:10F7F00009F05AC02091060130910701F901949156
:10F80000F1E0FF1639F182E0F81659F12F5F3F4F12
:10F8100030930701209306010894C11CD11CCA141F
:10F82000DB0408F0D4C0EE2011F300910601109122
:10F830000701C8010E949FFD982FF1E0FF16C1F05B
:10F8400082E0F816E1F00F5F1F4F1093070100935D
:10F850000601E2CF8091C00085FFFCCF9093C600E7
:10F86000D5CF8091C80085FFFCCF9093CE00CECF3E
:10F870008091C00085FFFCCF9093C600E4CF8091BB
:10F88000C80085FFFCCF9093CE00DDCF8091C800EB
:10F8900085FFFCCF8092CE0097CF8091C00085FF7E
:10F8A000FCCF8092C60090CF2091060130910701D5
:10F8B000C901A0E0B0E080509040AF4FBF4FABBF58
:10F8C000FC019791E1E0FE1649F0F2E0FF1609F025
:10F8D0009DCF8091C80085FFFCCFC7CF8091C0002D
:10F8E00085FFFCCFBBCF0E94ACF8809309020E9439
:10F8F000ACF88093080280910C028E7F80930C02FA
:10F900000E94ACF8853429F480910C0281608093C8
:10F910000C028091080290910902892B89F000E085
:10F9200010E00E94ACF8F801E85FFE4F80830F5FA3
:10F930001F4F80910802909109020817190788F358
:10F940000E94ACF8803209F0AACD80910C0280FFB1
:10F950006CC02091060130910701220F331F3093B4
:10F960000701209306018091080290910902892BDA
:10F97000E1F000E010E0F801E85FFE4FC9016081AE
:10F980000E94A7FD20910601309107012F5F3F4F94
:10F9900030930701209306010F5F1F4F80910802EB
:10F9A000909109020817190730F380910201813004
:10F9B00089F1823009F048CD8091C80085FFFCCFE5
:10F9C0008092CE008091C80085FFFCCFDACD81E027
:10F9D000F81649F0E2E0FE1609F036CD8091C80035
:10F9E00085FFFCCFCECD8091C00085FFFCCF06CE39
:10F9F00080910C02816080930C02D7CE80910C0222
:10FA0000826080930C02C1CE0E9496F988E08093B8
:10FA10006000FFCF8091C00085FFFCCF8092C600C0
:10FA20008091C00085FFFCCFE9CD8091070188233C
:10FA3000880F880B832180930B028BBF8091060176
:10FA400090910701880F991F9093070180930601F9
:10FA50008091080280FF09C08091080290910902FC
:10FA600001969093090280930802F894F999FECFC9
:10FA70001127E0910601F0910701C8E0D1E08091E3
:10FA8000080290910902103091F400915700017022
:10FA90000130D9F303E000935700E8950091570037
:10FAA00001700130D9F301E100935700E895099006
:10FAB00019900091570001700130D9F301E00093D3
:10FAC0005700E8951395103898F0112700915700CA
:10FAD00001700130D9F305E000935700E8950091DB
:10FAE000570001700130D9F301E100935700E89508
:10FAF0003296029709F0C7CF103011F00296E5CF89
:10FB0000112453CF0E94ACF80E94ACF8182F0E9429
:10FB1000ACF8112381F0113021F085E00E9450F9FA
:10FB200093CC87E90E9450F98FCCE0910401F091C9
:10FB30000501099567CC8EE10E9450F985CCF999B1
:10FB4000FECF92BD81BDF89A992780B50895262FE2
:10FB5000F999FECF1FBA92BD81BD20BD0FB6F894B2
:0EFB6000FA9AF99A0FBE01960895F894FFCF15
:02FB6E00800015
:040000031000F000F9
:00000001FF
