:10F000000C943E780C945B780C945B780C945B7851
:10F010000C945B780C945B780C945B780C945B7824
:10F020000C945B780C945B780C945B780C945B7814
:10F030000C945B780C945B780C945B780C945B7804
:10F040000C945B780C945B780C945B780C945B78F4
:10F050000C945B780C945B780C945B780C945B78E4
:10F060000C945B780C945B780C945B780C945B78D4
:10F070000C945B780C945B780C945B7811241FBE25
:10F08000CFEFD0E1DEBFCDBF11E0A0E0B1E0E0E224
:10F09000FBEF02C005900D92A230B107D9F712E044
:10F0A000A2E0B1E001C01D92AD30B107E1F70E94CE
:10F0B000DB790C948E7D0C940078982F959595951E
:10F0C00095959595905D8F708A301CF1282F295A5F
:10F0D00080910201813019F0823071F008958091A1
:10F0E000C00085FFFCCF9093C6008091C00085FFD3
:10F0F000FCCF2093C60008958091C80085FFFCCF07
:10F100009093CE008091C80085FFFCCF2093CE0065
:10F110000895282F205DDCCF982F80910201813047
:10F1200019F0823041F008958091C00085FFFCCF36
:10F130009093C60008958091C80085FFFCCF9093FE
:10F14000CE000895EF92FF920F931F9380910201DA
:10F15000813069F1823031F080E01F910F91FF9092
:10F16000EF900895EE24FF2487018091C80087FD69
:10F1700017C00894E11CF11C011D111D81E8E8165F
:10F1800086E9F80688E9080780E0180770F3E0913F
:10F190000401F091050109958091C80087FFE9CF2E
:10F1A0008091CE001F910F91FF90EF900895EE2473
:10F1B000FF2487018091C00087FD17C00894E11CDF
:10F1C000F11C011D111D81E8E81686E9F80688E9A1
:10F1D000080780E0180770F3E0910401F091050141
:10F1E00009958091C00087FFE9CF8091C6001F91EB
:10F1F0000F91FF90EF9008950E94A278982F809130
:10F200000201813049F0823091F091366CF49033F4
:10F210000CF09053892F08958091C00085FFFCCF9A
:10F220009093C60091369CF39755892F089580914D
:10F23000C80085FFFCCF9093CE00E7CF1F930E94BC
:10F24000FC78182F0E94FC781295107F810F1F9177
:10F250000895982F20910201992339F0213031F03F
:10F26000223061F091509923C9F708958091C00030
:10F2700087FFFCCF8091C6009150F5CF8091C800E8
:10F2800087FFFCCF8091CE009150EDCF1F93182FB8
:10F290000E94A278803249F0809103018F5F8093B1
:10F2A0000301853091F11F91089580910201813011
:10F2B000B9F08230C1F78091C80085FFFCCF84E1AE
:10F2C0008093CE008091C80085FFFCCF1093CE00C4
:10F2D0008091C80085FFFCCF80E18093CE00E3CF12
:10F2E0008091C00085FFFCCF84E18093C6008091AF
:10F2F000C00085FFFCCF1093C6008091C00085FF41
:10F30000FCCF80E18093C600CECFE0910401F09164
:10F31000050109951F9108950E94A278803241F05D
:10F32000809103018F5F80930301853029F1089557
:10F3300080910201813089F08230C9F78091C80044
:10F3400085FFFCCF84E18093CE008091C80085FFCB
:10F35000FCCF80E18093CE0008958091C00085FFAE
:10F36000FCCF84E18093C6008091C00085FFFCCF74
:10F3700080E18093C6000895E0910401F0910501B9
:10F380000995089544EF51E08823A1F02F9A28EEC3
:10F3900033E0FA013197F1F721503040D1F72F983F
:10F3A00028EE33E0FA013197F1F721503040D1F7E0
:10F3B000815061F708952F923F924F925F926F9222
:10F3C0007F928F929F92AF92BF92CF92DF92EF92F5
:10F3D000FF920F931F93CF93DF9394B714BE809146
:10F3E00060008861809360001092600091FF0EC3FE
:10F3F00081E08093020184E18093C4001092C500F3
:10F400001092C00086E08093C20088E18093C10022
:10F41000279A82E00E94C27914E1812EBEE17B2E00
:10F42000A6E96A2EFAE05F2EE0E14E2E33243394F3
:10F4300071E4272E0E94A2788033B9F1813309F458
:10F4400050C0803409F4D3C0813409F4F4C082344C
:10F4500079F1853409F4D5C0803539F1823529F147
:10F46000813509F4AAC2853509F4F3C0863509F45B
:10F47000FBC0843609F411C2843709F469C18537A9
:10F4800009F420C1863709F4E0C0809103018F5F41
:10F4900080930301853071F6E0910401F09105013C
:10F4A00009950E94A278803349F60E948C79C2CFD8
:10F4B0002091020193E105C0223061F09923A9F364
:10F4C00091502130C9F78091C00087FFFCCF809117
:10F4D000C600F4CF8091C80087FFFCCF8091CE009A
:10F4E000EDCF0E94A278803281F6809102018130B6
:10F4F00009F440C0823009F09DCF8091C80085FF9B
:10F50000FCCF8092CE008091C80085FFFCCF209276
:10F51000CE008091C80085FFFCCF86E58093CE00A9
:10F520008091C80085FFFCCF82E58093CE0080915A
:10F53000C80085FFFCCF80E28093CE008091C80098
:10F5400085FFFCCF89E48093CE008091C80085FFC1
:10F55000FCCF83E58093CE008091C80085FFFCCF6F
:10F5600080E58093CE008091C80085FFFCCF40925B
:10F57000CE0060CF8091C00085FFFCCF8092C60096
:10F580008091C00085FFFCCF2092C6008091C00012
:10F5900085FFFCCF86E58093C6008091C00085FF83
:10F5A000FCCF82E58093C6008091C00085FFFCCF30
:10F5B00080E28093C6008091C00085FFFCCF89E483
:10F5C0008093C6008091C00085FFFCCF83E58093C7
:10F5D000C6008091C00085FFFCCF80E58093C60007
:10F5E0008091C00085FFFCCF4092C60023CF0E94CF
:10F5F000A278863808F459CF0E94A2780E948C79AC
:10F6000019CF2091020194E006C0223069F09923BD
:10F6100009F44BCF91502130C1F78091C00087FF92
:10F62000FCCF8091C600F3CF8091C80087FFFCCF4C
:10F630008091CE00ECCF0E94A2788038B9F1813859
:10F64000E9F18238B9F1883969F180E00E944679A0
:10F65000F1CE0E94A278809306010E94A278809346
:10F6600007010E948C79E6CE0E94A278803309F4CB
:10F67000B6C12091020192E005C0223061F09923C9
:10F6800021F391502130C9F78091C00087FFFCCF52
:10F690008091C600F4CF8091C80087FFFCCF809195
:10F6A000CE00EDCF83E00E944679C4CE82E00E9476
:10F6B0004679C0CE80E10E944679BCCE81E00E94AE
:10F6C0004679B8CE0E94A278803209F0DECE8091D1
:10F6D0000201813001F1823009F0ACCE8091C80086
:10F6E00085FFFCCF8092CE008091C80085FFFCCFC3
:10F6F0007092CE008091C80085FFFCCF6092CE0052
:10F700008091C80085FFFCCF5092CE008091C80048
:10F7100085FFFCCF2CCF8091C00085FFFCCF80926D
:10F72000C6008091C00085FFFCCF7092C60080911A
:10F73000C00085FFFCCF6092C6008091C00085FFAD
:10F74000FCCF5092C6008091C00085FFFCCF4CCF0B
:10F750000E94A278809309020E94A27880930802F6
:10F76000209106013091070137FD33C180910C02D1
:10F770008D7F80930C02220F331F3093070120935B
:10F7800006010E94A278853409F41DC180910C0203
:10F790008E7F80930C020E94A278803209F04ACEBC
:10F7A000F090020181E0F81609F456C082E0F816E4
:10F7B00009F44BC0A0900802B0900902A114B10452
:10F7C00009F4DFC080910C02EE24E394E82292E079
:10F7D000992E9822CC24DD2413C0992009F443C02B
:10F7E000E0910601F09107013196F0930701E09353
:10F7F00006010894C11CD11CCA14DB0408F0C1C066
:10F80000EE2059F30091060110910701C8010E94F2
:10F81000787D982F81E0F81651F082E0F81671F0AB
:10F820000F5F1F4F1093070100930601E2CF8091F5
:10F83000C00085FFFCCF9093C600F2CF8091C80036
:10F8400085FFFCCF9093CE00EBCF8091C80085FF61
:10F85000FCCF8092CE00AECF8091C00085FFFCCF60
:10F860008092C600A7CFE0910601F0910701949124
:10F8700081E0F81659F082E0F81609F0B5CF8091D2
:10F88000C80085FFFCCF9093CE00AECF8091C00022
:10F8900085FFFCCF9093C600A7CF0E94A2788093EB
:10F8A00009020E94A2788093080280910C028E7F48
:10F8B00080930C020E94A278853429F480910C0276
:10F8C000816080930C028091080290910902892B3B
:10F8D00089F000E010E00E94A278F801E85FFE4F96
:10F8E00080830F5F1F4F80910802909109020817D3
:10F8F000190788F30E94A278803209F0C6CD809162
:10F900000C0280FF89C02091060130910701220F6F
:10F91000331F3093070120930601809108029091D4
:10F920000902892BE1F000E010E0F801E85FFE4FEA
:10F93000C90160810E94807D2091060130910701FC
:10F940002F5F3F4F30930701209306010F5F1F4F3A
:10F9500080910802909109020817190730F38091ED
:10F9600002018130F9F0823009F064CD8091C80045
:10F9700085FFFCCF8092CE008091C80085FFFCCF30
:10F98000F6CD81E0F81649F082E0F81609F052CD84
:10F990008091C80085FFFCCFEACD8091C00085FF33
:10F9A000FCCF22CE8091C00085FFFCCF8092C600A4
:10F9B0008091C00085FFFCCF17CE0E948C7988E033
:10F9C00080936000FFCF80910C02816080930C02D5
:10F9D000E2CE80910C02826080930C02CCCE0E9419
:10F9E000A2780E94A278182F0E94A278112351F0C9
:10F9F000113021F08AE00E9446791CCD86E90E94F0
:10FA0000467918CD8EE10E94467914CDE09104012B
:10FA1000F09105010995ECCC809107018823880FAE
:10FA2000880B832180930B0280910601909107013E
:10FA3000880F991F90930701809306018091080217
:10FA400080FF09C08091080290910902019690936D
:10FA5000090280930802F894F999FECF1127E091EA
:10FA60000601F0910701C8E0D1E080910802909171
:10FA70000902103091F40091570001700130D9F360
:10FA800003E000935700E8950091570001700130A2
:10FA9000D9F301E100935700E8950990199000917E
:10FAA000570001700130D9F301E000935700E89549
:10FAB0001395103898F0112700915700017001300C
:10FAC000D9F305E000935700E895009157000170C5
:10FAD0000130D9F301E100935700E895329602977F
:10FAE00009F0C7CF103011F00296E5CF112437CFBF
:10FAF000F999FECF92BD81BDF89A992780B50895F6
:10FB0000262FF999FECF1FBA92BD81BD20BD0FB639
:10FB1000F894FA9AF99A0FBE01960895F894FFCFD7
:02FB2000800063
:040000030000F00009
:00000001FF
